:020000040800F2
:100000000000022069C10008A9030008AD03000830
:10001000B1030008B5030008B903000800000000A0
:10002000000000000000000000000000BD03000808
:10003000C103000800000000C5030008C903000850
:10004000B9C10008B9C10008B9C10008B9C10008A8
:10005000B9C10008B9C10008B9C10008B9C1000898
:10006000B9C10008B9C10008B9C10008B9C1000888
:10007000B9C10008B9C10008B9C10008B9C1000878
:10008000B9C10008B9C10008B9C10008B9C1000868
:10009000B9C10008B9C10008B9C10008B9C1000858
:1000A000B9C10008B9C10008B9C10008B9C1000848
:1000B000B9C10008B9C10008B9C10008B9C1000838
:1000C000B9C10008B9C10008B9C10008B9C1000828
:1000D000B9C10008B9C10008B9C10008B9C1000818
:1000E000B9C10008B9C10008B9C10008B9C1000808
:1000F000B9C10008B9C10008B9C10008590B00080E
:10010000B9C10008B9C10008B9C10008B9C10008E7
:10011000B9C10008B9C10008B9C10008B9C10008D7
:10012000B9C10008B9C10008B9C10008B9C10008C7
:10013000B9C10008B9C10008B9C10008B9C10008B7
:10014000B9C10008B9C10008B9C10008B9C10008A7
:10015000B9C10008B9C10008B9C10008B9C1000897
:10016000B9C10008B9C10008B9C10008B9C1000887
:10017000B9C10008B9C10008B9C10008B9C1000877
:08018000B9C10008B9C1000873
:10018800F0B54FF4406083B0C4F2020000294AD0B1
:100198004FF4005101F0A2F84FF44060C4F202009D
:1001A8004FF4804101F09CF840F6EC06C2F20006DC
:1001B80040F20004C2F2000494E8030001F0DAFA05
:1001C800626842F21071121A8A420346626038DD90
:1001D8004AF2B8652268C2F2000540F20001C2F294
:1001E80000014FF0000ED7182868CDF800E00A1D6E
:1001F8003346276001F01CFB18B1023008D003B069
:10020800F0BD4AF2C0612868C2F2000101F0C8FAE4
:100218004AF2C063C2F200033046196903B0BDE870
:10022800F04000F089BC4FF4804101F057F84FF4DA
:100238004060C4F202004FF4005101F051F8094E39
:10024800B6E74CF2C81347F6F442C0F60003C0F212
:100258000A02184611462360626001F08BFA0346D1
:10026800B6E700BFEC28002040F21803C2F20003F2
:100278002DE9F041186844F6D352C1F26202A2FB9C
:1002880000304EF210034FF46D42CEF20002CEF26F
:1002980000038009002407270138F0214FF4406645
:1002A80086B05860C4F2020682F8231008209C60C9
:1002B80001211F6000F0D6FD01254FF47043304640
:1002C80069464FF0030800938DF805808DF80640C5
:1002D8008DF807408DF8045000F070FF29464FF460
:1002E800003000F0E9FD2846294600F0BBFD022356
:1002F8006946304660228DF804308DF805800092FA
:100308008DF806408DF807504FF4884800F056FFE6
:1003180030463A46052100F0F1FFC4F200083046A5
:100328003A46062100F0EAFF4FF4E1320C2340463A
:1003380002A90292ADF81230ADF80C40ADF80E40AB
:10034800ADF81040ADF8144001F056F84046294683
:1003580001F0DAF806B0BDE8F08100BF4AF2B463F4
:10036800C2F200031A6812B11A68013A1A604AF216
:10037800BC63C2F200031A6801321A60704700BFFA
:1003880082B04AF2B4620190019BC2F2000213608B
:100398001368002BFCD102B0704700BF704700BF44
:1003A800704700BFFEE700BFFEE700BFFEE700BFE3
:1003B800FEE700BF704700BF704700BF704700BF2F
:1003C800FFF7CCBF4FF46D42CEF200024FF46053FA
:1003D800D2F88810C4F2020341F47001C2F8881000
:1003E8001968002241F0010119609A60186843F207
:1003F800100120F08470C2F2004120F480301860AF
:100408005960196882B021F480211960DA6000927D
:1004180001921A6842F480321A601A4603E0009B7F
:10042800B3F5A06F09D0136803F400330193009B60
:1004380001330093019B002BF1D04FF46053C4F2B9
:1004480002031B6813F4003318BF01230193019BB7
:10045800012B08D04FF46D43CEF200034FF0006239
:100468009A6002B070474FF46053C4F202034FF42D
:10047800E042196CC4F2000241F08051196411681D
:1004880041F4804111609A689A609A6842F4004287
:100498009A60996845F2084241F4A051C0F240724E
:1004A80099605A601A6842F080721A6019460A68A0
:1004B8004FF460539201C4F20203F8D54FF470521E
:1004C800C4F2020240F2056111609A6822F0030248
:1004D8009A609A6842F002029A609A6802F00C02E6
:1004E800082AFAD1B6E700BF4FF46053C4F20203FA
:1004F8009A6802F00C02042A36D0082A12D04FF467
:100508001051C0F2F4014FF46052C4F2020240F2FA
:1005180008039268C2F20003C2F303129A5CD14046
:100528001961704758685A6810F4800F586815BFE9
:1005380047F640034FF41053C0F27D13C0F2F403A2
:1005480002F03F02B3FBF2F14FF46053C4F202032E
:10055800C0F388105B68C3F30143013301FB00F16A
:100568005B00B1FBF3F1CEE747F64001C0F27D1125
:10057800C9E700BF0020704700207047012070477E
:10058800002070474FF0FF30704700BF00207047D1
:1005980044F6EC03C2F20003186838B101446A4615
:1005A800914294BF19604FF0FF3070474AF2E06003
:1005B800C2F200001860F1E770B5161E14DD0C4693
:1005C8008D194FF48840C4F2000014F8011B00F0A4
:1005D800CFFF4FF48840C4F20000402101F08CF8AE
:1005E8000028F6D0AC42ECD1304670BD10B52DEDE8
:1005F800028BB5EEC00AF1EE10FA86B0B0EE408A72
:1006080044BFB1EE408A2D224FF00003B0EE480AF5
:100618000446ADF8143044BF8DF815308DF8142019
:1006280005F090FC07EE904AF0EE408AF8EEE70AF3
:10063800B2EE040A05F0D6FC78EE688AF6EE007A87
:10064800E8EE807ABCEEC88AFCEEE77A44F6F00061
:1006580043F6E00100940194CDED027AC0F6010161
:1006680005AA18EE103AC2F2000007F099F844F60D
:10067800F000C2F2000006B0BDEC028B10BD00BF56
:1006880010B44FF4A844C4F20004228B4FF4A843DA
:100698009207C4F20003F8D41A8892B242F4807226
:1006A8001A809C8A4FF4A842E407C4F20002F8D5E5
:1006B80094231382948A4FF4A843A407C4F2000336
:1006C800F8D51A8B1882988A4FF4A8420006C4F20B
:1006D8000002F8D51182918A4FF4A8434907C4F261
:1006E8000003F8D51A885DF8044B92B242F4007200
:1006F8001A80704746F2B802C4F2020242F650412C
:1007080044F65413C2F20003C0F2010110B511609F
:1007180019681C69516043F60C41C4F200019160EC
:1007280058680421D06051611068002140F0010030
:100738001060596099680122514099601A7314B188
:1007480099685869A04710BD08B502209E21FFF797
:1007580097FF4FF47053C4F200034FF460629A831A
:1007680008BD00BF08B502200121FFF789FF4FF43B
:100778007053C4F2000300229A8308BD10B51930E3
:10078800C4B221462020FFF77BFF21462120BDE887
:100798001040FFF775BF00BF2DE9F04F44F6541E17
:1007A800C2F2000E0746012087B0002488460146A1
:1007B800CEF80440CEF81040CEF80040CEF81440F1
:1007C800CEF8084016468EF80C401D4600F04AFB4D
:1007D8000220012100F046FB0420012100F042FB29
:1007E8000820012100F03EFB4FF40010012100F029
:1007F80039FB4FF4406B4FF4001001214FF0100A01
:1008080000F05AFBC4F2020B4FF40040012100F043
:1008180053FB4FF00209012358460DEB0A018DF8EE
:10082800143001938DF816408DF81740CDF810A0BC
:100838008DF8159000F0C2FC019B8DF815904FF4CF
:1008480080604FF410720DEB0A01C4F202008DF8BB
:10085800163004928DF814908DF8174000F0AEFC15
:100868004FF48060C4F202000621042200F046FD25
:100878004FF480600422C4F20200092100F03EFD1A
:100888004FF400604FF4A4530DEB0A01C4F20200C8
:1008980004938DF815908DF814908DF816408DF806
:1008A800174000F08BFC4FF40060C4F202000721EF
:1008B800062200F023FD4FF40060C4F202000A2172
:1008C800062200F01BFD4FF400600622C4F202006D
:1008D8000C2100F013FD20460DEB0A01C4F20200C2
:1008E800CDF810A08DF815908DF814908DF816405D
:1008F8008DF8174000F062FC20460622C4F2020080
:10090800042100F0FBFCABF81AA00394039A44F608
:10091800FE739A4206DC00BF039C01340394039CD7
:100928009C42F8DD4FF44063C4F2020310221A839C
:100938004FF40010012100F005FB4FF400100021D6
:1009480000F000FB4FF4A843C4F2000340F2014258
:100958004FF0D20E2A2048F233012B2498801981B7
:100968000220A3F81CE001211C841A80FFF788FEEE
:100978000420AF21FFF784FE05208121FFF780FEC8
:1009880004210620FFF77CFEFF20FFF7F7FE022078
:100998009E21FFF775FE0A200021FFF771FE0E2049
:1009A8000421FFF76DFE27200021FFF769FE1F20B5
:1009B8000F21FFF765FE1A200A21FFF761FE1B20B1
:1009C8000A21FFF75DFE4FF47053C4F200034FF4A1
:1009D8006050C4F2020000229A838368BF0123F4A6
:1009E800000347EA08778360C0F88470036843F01F
:1009F8008063036001680901FCD546F400764FF472
:100A08007053C4F2000346EA0525ADB24FF46062A4
:100A18001D849A8307B0BDE8F08F00BF4FF4705172
:100A2800C4F200010A894FF470539207C4F200031C
:100A3800F8D580B2988170474FF47053C4F2000320
:100A480080B29881704700BF46F2B802C4F2020231
:100A5800F8B5136823F001030646136008461368C7
:100A680013F00103FBD144F654124FF46145C2F26E
:100A78000002CEF200054FF470544021C4F2000485
:100A88004FF4004713736F6085F82F13A18889B25C
:100A980041F00201A1809360166150610EB1916826
:100AA800B047F8BD46F2B803C4F2020330B419687F
:100AB80021F001011A461960136813F00103FBD1F4
:100AC80044F65411C2F200014FF47050C4F2000011
:100AD8000B7382884FF4614422F00202CEF20004C4
:100AE80012044FF40045120C8280C4F884500B6144
:100AF80030BC704744F65413C2F2000310B55A686C
:100B08000AB1002010BD4FF46142CEF200024FF44A
:100B18000044C2F88440586019601B7B43B14FF40D
:100B28006143CEF200034FF400425A60012010BD29
:100B3800FFF7E0FDF3E700BF38B505460C4600E0D7
:100B480030BF28462146FFF7D5FF0028F8D038BD2A
:100B58004FF4C042C4F2020244F65413D168C2F200
:100B6800000341F00061D1605A680AB1FFF7C2BDC5
:100B78001A7370475C39010800000020EC08002057
:100B8800EC080020E0A600204FF46053C4F20203F2
:100B98000022196841F0010119609A60186843F24F
:100BA800100120F08470C2F2004120F480301860F7
:100BB8005960196821F480211960DA60704700BF14
:100BC80043F60203C4F2020300221A701870704739
:100BD80082B000234FF460520193C4F202021368FA
:100BE8009B030FD4019B01330193019BB3F5A06FC5
:100BF800F5D14FF46053C4F202031868C0F34040C3
:100C080002B07047019B01330193019BF1E700BFDC
:100C18004FF46053C4F202031A6822F0F80242EA61
:100C2800C0001860704700BF0023C4F24723186053
:100C3800704700BF43F67003C4F202030022012884
:100C48001A701A7005D0042802D105221A7070474C
:100C580070471870704700BF4FF46863C4F24723A9
:100C68001860704710B4019C40EA04605B080143B7
:100C78004FF46054C4F20204013B41EA821242EA92
:100C8800034363605DF8044B704700BF6023C4F200
:100C980047231860704700BF4FF460530907C4F238
:100CA800020341EA8010C3F8840070476823C4F245
:100CB80047231860704700BF4C23C4F247231860CD
:100CC800704700BF4FF46053C4F202039A6822F0E1
:100CD800EC62114308439860704700BF4FF46053BB
:100CE800C4F202039A6822F07842114308439860DC
:100CF800704700BF4FF46053C4F202039A6822F0B1
:100D080003021043986070474FF46053C4F2020323
:100D1800986800F00C0070474FF46053C4F2020367
:100D28009A6822F0F0021043986070474FF46053BD
:100D3800C4F202039A6822F4E052104398607047A4
:100D48004FF46053C4F202039A6822F4604242EA04
:100D5800C0009860704700BF4FF46053C4F20203AC
:100D680010B49A6802F00C02042A24D0082A28D069
:100D78004FF41051C0F2F40101604FF46052C4F214
:100D8800020240F21C039468C2F20003C4F3031485
:100D98001C5DE14041609468C4F382241C5D21FA23
:100DA80004F4846092685DF8044BC2F342329B5CA1
:100DB800D940C160704747F64001C0F27D1101601B
:100DC800DBE75C685A6814F4800F5C6815BF47F667
:100DD80040034FF41053C0F27D13C0F2F40302F045
:100DE8003F02B3FBF2F14FF46053C4F20203C4F3C1
:100DF80088145B68C3F30143013301FB04F15B0012
:100E0800B1FBF3F10160B8E700F44073B3F5407F3C
:100E18000CD14FF46053C4F2020320F070419A6879
:100E280021F4407122F4F8120A439A604FF4605397
:100E3800C4F20203C0F30B001A6F1043186770471F
:100E480040F63C63C4F24723186070474FF464636C
:100E5800C4F24723186070474FF4AE73C4F24723B7
:100E6800186070474FF46053C4F202031A6B19B943
:100E780022EA00001863704710431863704700BFE8
:100E88004FF46053C4F202035A6B19B922EA000006
:100E98005863704710435863704700BF4FF460535E
:100EA800C4F202039A6B19B922EA000098637047EA
:100EB80010439863704700BF4FF46053C4F20203B5
:100EC8001A6C19B922EA00001864704710431864B4
:100ED800704700BF4FF46053C4F202035A6C19B94B
:100EE80022EA00005864704710435864704700BFF6
:100EF8004FF46053C4F202031A6919B922EA0000D8
:100F08001861704710431861704700BF4FF4605371
:100F1800C4F202035A6919B922EA000058617047FD
:100F280010435861704700BF4FF46053C4F2020386
:100F38009A6919B922EA00009861704710439861CC
:100F4800704700BF4FF46053C4F202031A6A19B91C
:100F580022EA00001862704710431862704700BF09
:100F68004FF46053C4F202035A6A19B922EA000026
:100F78005862704710435862704700BF4FF460537F
:100F8800C4F202031A6D19B922EA00001865704705
:100F980010431865704700BF4FF46053C4F2020352
:100FA8005A6D19B922EA0000586570471043586510
:100FB800704700BF4FF46053C4F202039A6D19B929
:100FC80022EA00009865704710439865704700BF93
:100FD8004FF46053C4F202031A6E19B922EA0000F2
:100FE8001866704710431866704700BF4FF4605387
:100FF800C4F202035A6E19B922EA00005866704713
:1010080010435866704700BF43F60D03C4F202034D
:101018001A7819B922EA000018707047104318703E
:10102800704700BF4309012B0ED0022B4FF46053C9
:10103800C4F2020300F01F000CBF1B6F5B6F23FAA2
:1010480000F000F0010070474FF46053C4F202034F
:1010580000F01F001B6823FA00F000F00100704741
:101068004FF46053C4F202035A6F42F080725A6719
:10107800704700BF4FF46053C4F20203DB681842A4
:101088000CBF00200120704743F60E03C4F2020390
:101098001870704708B50023C4F2020398423CD088
:1010A8004FF48063C4F20203984240D04FF40063C7
:1010B800C4F20203984244D04FF44063C4F20203DE
:1010C800984248D04FF48053C4F2020398424CD05F
:1010D8004FF4A053C4F20203984250D04FF4C053C7
:1010E800C4F20203984254D04FF4E053C4F202030E
:1010F800984258D04FF40053C4F20203984200D0EB
:1011080008BD4FF480700121FFF7F2FE4FF48070A4
:101118000021BDE80840FFF7EBBE01200146FFF7BC
:10112800E7FE01200021BDE80840FFF7E1BE0220EC
:101138000121FFF7DDFE02200021BDE80840FFF78E
:10114800D7BE04200121FFF7D3FE04200021BDE80B
:101158000840FFF7CDBE08200121FFF7C9FE08208F
:101168000021BDE80840FFF7C3BE10200121FFF7AA
:10117800BFFE10200021BDE80840FFF7B9BE2020BF
:101188000121FFF7B5FE20200021BDE80840FFF748
:10119800AFBE40200121FFF7ABFE40200021BDE893
:1011A8000840FFF7A5BE80200121FFF7A1FE80209F
:1011B8000021BDE80840FFF79BBE00BF00222DE9D3
:1011C800F04313460E6801274FF0030C04E0013387
:1011D800102B02F102022ED007FA03F404EA0605E6
:1011E800A542F4D1D0F8008091F804E00CFA02F49A
:1011F800E44304EA0808C0F80080D0F800800EFA3A
:1012080002F90EF1FF3E5FFA8EFE49EA0808BEF1C8
:10121800010FC0F8008010D9C56891F807E02C408C
:10122800C460C5680EFA02F401332C43102BC46065
:1012380002F10202D0D1BDE8F083D0F8089091F80D
:10124800058091F806E004EA0909C0F80890D0F88A
:10125800089008FA02F848EA0908C0F80880D0F8A7
:10126800048028EA0505456045680EFA03FE1FFA62
:101278008EFE4EEA05054560CEE700BF00234FF617
:10128800FF720260037143718371C371704700BFBD
:1012980082B04FF480330193019B0B430193019B70
:1012A800C361C161019BC361C3690193C3690193B0
:1012B80002B07047036919420CBF00200120704733
:1012C800006980B2704700BF436919420CBF002013
:1012D80001207047406980B2704700BF01837047A2
:1012E800418370470AB9418370470183704700BF43
:1012F800416170474369594041617047CB0800EB31
:10130800830001F0070110B48900046A0F238B40A1
:1013180024EA03030362036A5DF8044B8A4013431B
:101328000362704708B54FF48053C4F20103984232
:1013380028D04FF48843C4F2000398422CD04FF4CD
:101348009043C4F20003984232D04FF49843C4F259
:101358000003984238D04FF4A043C4F200039842E7
:101368003ED04FF4A053C4F20103984200D008BD08
:1013780020200121FFF7F4FD20200021BDE80840CE
:10138800FFF7EEBD10200121FFF7EAFD1020002134
:10139800BDE80840FFF7E4BD4FF400300121FFF736
:1013A800D1FD4FF400300021BDE80840FFF7CABD69
:1013B8004FF480200121FFF7C5FD4FF48020002164
:1013C800BDE80840FFF7BEBD4FF400200121FFF73C
:1013D800B9FD4FF400200021BDE80840FFF7B2BD79
:1013E8004FF480100121FFF7ADFD4FF4801000216C
:1013F800BDE80840FFF7A6BD028ACB8822F4405218
:101408001204F0B5120C04461A430F898E884889D5
:101418000D4689892282A38923F4B05347EA06023C
:1014280023F00C0302431B0492B21B0C1343A38149
:10143800A38A23F440731B041B0C85B00B43A382BF
:101448006846FFF789FCA6890298039B4FF4A051D0
:101458004FF48052C4F20101C4F20102944218BF51
:101468008C4232B218BF0346002A2A68A08903EBCF
:101478008303B4BF5200920003EB8303B3FBF2F380
:1014880048F21F52C5F2EB12A2FB035100B26425C9
:101498004909002801FB1533B5BFDB001B013233B6
:1014A8003233B5BFA2FB0302A2FB0352C2F34212BE
:1014B800C2F343120901114389B2218105B0F0BD7D
:1014C80000234FF416510C22016042818380C380AF
:1014D80003818381704700BF30B40A884D888C88A7
:1014E800038AC9882A43224323F470630A431B04EE
:1014F80092B21B0C1343038230BC70470023038055
:1015080043808380C3807047838929B923F40053BB
:101518001B041B0C838170479BB243F400538381E7
:10152800704700BF038B03F47F430383038B9BB295
:1015380019430183704700BF838919B9C3F30E03A8
:10154800838170476FEA43436FEA53439BB28381B9
:10155800704700BF838A29B923F400631B041B0C5E
:10156800838270479BB243F400638382704700BF55
:10157800C1F30801818070478088C0F30800704774
:10158800038A23F00F031B041B0C0382038A9BB2FC
:1015980019430182704700BF838929B923F00203E8
:1015A8001B041B0C838170479BB243F002038381A9
:1015B800704700BF838923F400631B041B0C8381DD
:1015C80083899BB219438181704700BF038A23F046
:1015D80020031B041B0C0382038A9BB2194301825C
:1015E800704700BF038A29B923F480431B041B0CEE
:1015F800038270479BB243F480430382704700BF65
:1016080083899BB243F0010383817047838A29B998
:1016180023F008031B041B0C838270479BB243F022
:1016280008038382704700BF038BDBB20383038BFD
:101638009BB243EA01210183704700BF838A29B91D
:1016480023F020031B041B0C838270479BB243F0DA
:1016580020038382704700BF838A29B923F01003CF
:101668001B041B0C838270479BB243F010038382D8
:10167800704700BF838A23F004031B041B0C83827A
:10168800838A9BB219438182704700BF838A29B934
:1016980023F002031B041B0C838270479BB243F0A8
:1016A80002038382704700BF838A9BB21AB923EA78
:1016B80001018182704719438182704701F01F033D
:1016C80010B4C1F342110124A14204FA03F308BF84
:1016D8000C3003D002290CBF1030143004682AB92A
:1016E80024EA030303605DF8044B70472343036057
:1016F8005DF8044B704700BF038819420CBF0020F7
:1017080001207047C94389B201807047C1F3421371
:1017180030B401F01F020124012B04FA02F416D0A0
:10172800022B0CBF028A828A92B2224003880125CA
:10173800090A05FA01F19BB219420CBF00200120E9
:10174800002A0CBF002000F0010030BC70478289DD
:1017580092B22240EAE700BF090A012303FA01F125
:10176800C94389B20180704700F05EBD08B100F03E
:10177800C5BD7047013900290FDD431E002002E076
:101788000130884209D013F8012FFF2AF8D15A787E
:1017980002F0E002E02AF3D170474FF0FF307047C3
:1017A80070B418B1D0F8D037032B09D000230B60E0
:1017B8004B608B60CB600B614B618B6170BC704779
:1017C80090F8D427D0F8B867D0F8BC47D0F8C057FD
:1017D8000E6040F2AC6002EB4206C0F6010000EB7E
:1017E80046008A61B0F904004C60102600FB04F240
:1017F8008D60CE600A614B6170BC704738B50D468C
:10180800044688B1114600F001FB013009D0D4F834
:10181800D037032B05D120462946FFF7C1FF00200A
:1018280038BD6FF0050038BD6FF0040038BD00BF4B
:101838002DE9F04F89B08A469146059380460028E5
:1018480000F03D82096800F0E1FAB0F1000BC0F247
:101858001181DAF800105944CAF80010404600F027
:10186800C7FB0028C0F25281DAF80030D9F800101E
:101878000BEB000C0344CCEB0101CAF80030C9F8AB
:1018880000100393D8F8B837002B4CD1D8F8B037EC
:10189800002B4BD10123C8F8B037D9F80010039AB0
:1018A8004E1E002ECCEB020C154621DD2C460023E3
:1018B80004E00133B34204F1010419D0EA5CFF2AC1
:1018C8002746F6D1627802F0E00EBEF1E00FF0D1C3
:1018D8009CF80050FF2D00F0D2804FF6FD72CFF635
:1018E800FF72D21A11444E1E002E04F10305DDDCEE
:1018F8004FF0FF33C8F8B437D8F8C437D8F8C8273A
:10190800D8F8BC1702FB03F301FB03F1002907DD3C
:10191800059B002203EB410123F8022B8B42FBD1EC
:101928006FF00200A8E0D8F8B0374BB1D8F8B47718
:10193800404600F05FFA3844C8F8CC07D9F80010E0
:10194800129F002F00F0C580D8F8D837C8F8CC17F8
:10195800002B7BD1002979DDC8F8DC17D9F80030D5
:10196800DAF800505B1A2944CAF80010C9F80030A8
:10197800D8F8C437D8F8DC670027BB424FEAC60658
:10198800079740F39A8108F2DC72B34604923E4608
:10199800D8F8BC37002B40F32F81DDF81CA0DDF808
:1019A800109003965B460024D3469A4616E0039FA0
:1019B8000194009700F0D4FF002804F10104A6EB7D
:1019C800C0060544C0F249810799D8F8BC37761A91
:1019D800A34206EB0B0A40F30D818B46039B294675
:1019E8008DE8180007AA5346404602F02FFC079ED0
:1019F80059F8043F0746CBEBC7013144C1EB0A0B4A
:101A0800591A4FEAD77A8B45B8BF4AF0010A3D44C4
:101A18000B4607AA40462946BAF1000FC7D0D8F8A6
:101A2800C437D8F8C827D8F8BC1702FB03F301FB62
:101A380003F1002907DD059B002203EB410123F890
:101A4800022B8B42FBD16FF0070015E0D8F8C437A2
:101A5800D8F8C827D8F8BC1702FB03F301FB03F139
:101A6800002907DD059B002203EB410123F8022B27
:101A78008B42FBD16FF0050009B0BDE8F08F9CF8F0
:101A88000150AA427FF429AF9CF80220A57855405E
:101A980015F0FC0F7FF421AF9307039B48BF04F1B7
:101AA800FF37FF1A002FC8F8B477FFF625AFBB44FD
:101AB800D8F8C017D8F8C437D8F8C827584401FB55
:101AC80000F1C90002FB03F391FBF3F3C8F8B83740
:101AD8002EE7D8F8CC378B4231DDD8F8C437D8F8A0
:101AE800C827D8F8BC1702FB03F301FB03F1002950
:101AF80007DD059B129A03EB410123F8022B8B4269
:101B0800FBD14FF0FF3009B0BDE8F08FD8F8C437EB
:101B1800D8F8C827D8F8BC1702FB03F301FB03F178
:101B2800002907DD059B002203EB410123F8022B66
:101B38008B42FBD16FF0060009B0BDE8F08FD8F8F2
:101B4800DC17D8F8D827914224DB891A414408F1D8
:101B58001C051C31284605F0A1FDD8F8D837DAF85D
:101B68000010D8F8CC2708EB03001C3005F048FD1E
:101B7800D8F8CC37D8F8D827DAF800101A44C8F8BB
:101B8800DC27D9F800201944D31ACAF80010C9F87C
:101B98000030EDE608EB01001A46DAF800101C30B8
:101BA80005F02EFDD8F8CC37D8F8DC27DAF8001085
:101BB8001A44C8F8DC27D9F800201944D31ACAF8FF
:101BC8000010C9F80030D8F8C437D8F8C827D8F8B2
:101BD800BC1702FB03F301FB03F1002907DD059B9A
:101BE800129A03EB410123F8022B8B42FBD16FF0D1
:101BF800010041E7039ED3464046314600F080FB92
:101C0800002874DBD8F8BC37002BC8BF002404DCDC
:101C18003CE0D8F8BC37A34238DD2246404631467E
:101C280001F0D6FB002804F10104F2DAD8F8C43731
:101C3800D8F8C827D8F8BC1702FB03F301FB03F157
:101C4800002907DD059B002203EB410123F8022B45
:101C58008B42FBD16FF00A000EE7D8F8C437D8F8EA
:101C6800C817D8F8BC2701FB03F302FB03F2002ACC
:101C7800C8BF059B5646C8BF03EB420203DD23F8E5
:101C8800026B9342FBD16FF00800F5E6D8F8C8273D
:101C9800059F02FB06F202FB03F107EB41014046F8
:101CA80003F01CF90028D8F8C4370BDB049F013671
:101CB8000837B34204973FF76BAE0020DCE66FF0BD
:101CC8000400D9E6D8F8C817D8F8BC2701FB03F3F5
:101CD80002FB03F2002A07DD059B002103EB420209
:101CE80023F8021B9342FBD16FF00B00C4E6D8F82F
:101CF800C437D8F8C817D8F8BC2701FB03F302FB90
:101D080003F2002A07DD059B002103EB420223F8BA
:101D1800021B9342FBD16FF00900ADE6002302607D
:101D2800C1604360836070474268F0B4846801F022
:101D38001F01034602FA01F5C1F11F00611AC240F2
:101D480000295D604FEA5200996001DBF0BC7047E2
:101D5800DF68032FC1F1000120DC00245C60002F44
:101D68003BD01A68D61901321A6012F8015C2C436C
:101D78002402B2425C60F6D1C7F10302D20094405B
:101D8800C1F1200224FA02F28C400025C1EBC707FA
:101D9800DD6010439F605C60F0BC70471A681446B1
:101DA800551C1D6014F8025B2D0683E8300054783A
:101DB800D61C45EA04445C601E609678151D44EA0A
:101DC80006245C601D60D2783D1F2243C1F12007C4
:101DD80002FA01F4DD60FA40DBE73C463A46D4E714
:101DE80010B404688368611AC3EBC100801A5DF8F7
:101DF800044B704730B1036823B15869003018BFED
:101E0800012070474FF0FF30704700BF2DE9F04FB9
:101E180085B0002800F0E6800368002B00F0E2801F
:101E28000A78FF2A40F0DE804A7802F0E004E02CCD
:101E380040F0D880D20894071ABF02F0010282F05D
:101E4800010202221A7091F80190C9F34109C9F1FF
:101E580004045C6091F801E001940EF0010E8EF02C
:101E6800010EC3F808E08D782D09DD608C78C4F385
:101E780081041C618E78C6F340065E6102968E78F6
:101E880006F001069E61CE78B6091E7791F803C068
:101E9800CCF3011CC3F820C091F803C0CCF3C00CEC
:101EA800C3F824C091F803C0CCF3800CC3F828C051
:101EB80091F803C0032C0CF0030CC3F82CC000F0FD
:101EC8009180019F042F00F08D800F2D00F08A80F3
:101ED8004FF0DE0808FB02F84FF04A0A40F2EC2CFB
:101EE8000AFB0488C0F6010CC444012EC3F834C0B0
:101EF80005D04FF0000C032EC3F820C06FD0022786
:101F08000397039F80F8D4274FEA420B0BEB020C90
:101F1800C9F1030940F2AC68C0F8BC77019F0CEB2B
:101F2800090AC0F60108C0F8D07740F2D07738F92E
:101F38001A80C0F601070CEB040A002A14BF01221C
:101F4800022257F82A70C0F8C42798FBF2F2C0F8AA
:101F5800C827C0F8C07785B3CCEB0C1CC4EB0414BD
:101F6800C9EB0919644440F2885840F29867CC4498
:101F780040F2C0622C44032E0CBF5E460BF10106F2
:101F88006544C0F60108C0F60107C0F6010238F939
:101F9800148032F9152037F91640C2EB4215C4EB0C
:101FA800080402EB8502043C029DA4EB4E042C4479
:101FB800D200C0F8CC47C0F8B827BEF1000F05D151
:101FC8000420C3F830E005B0BDE8F08F08794A79FD
:101FD80042EA002206201A6305B0BDE8F08F012707
:101FE80003978EE74FF0FF3005B0BDE8F08F00BFD4
:101FF8002DE9F04F804687B0002800F0128107686D
:10200800002F00F00E8142680092002A00F009813A
:102018003E783B7F029102AD002E40F0E780032B13
:1020280014BF202311230921284601930593039601
:102038000496FFF779FE397F009B032914BF03211B
:10204800052118602846FFF76FFED8F8BC37009ABC
:10205800002BC8BF009B5060C8BF1C1D0EDD04F1DB
:10206800100928460121FFF75FFE44F8040F4C458C
:10207800F7D1D8F8BC370136B342F0DCD8F8C4271A
:10208800002A40F3A4804FF0000ADDF800B0D8F829
:10209800BC37D146002B40F393805C46002644E0D1
:1020A80002212846FFF740FE0121E0632846FFF79A
:1020B8003BFE052120642846FFF736FE05216064B3
:1020C8002846FFF731FE0321A064C4F84C90284647
:1020D800FFF72AFE032120652846FFF725FE032186
:1020E80060652846FFF720FEE36BA065002B5FD1F3
:1020F800E26DE362A3626363C2F1140323663B7873
:102108000020002B4FD0606601212846FFF70CFE07
:102118000121A0662846FFF707FEE066D8F8BC371D
:102128000136B34204F1480448DD0C212846FFF784
:10213800FBFD0921A0622846FFF7F6FD0821E062B1
:102148002846FFF7F1FD39782063002914BF0921DB
:1021580004212846FFF7E8FD012160632846FFF7C0
:10216800E3FDA06300289BD1E06320640521284695
:10217800FFF7DAFD052160642846FFF7D5FD052144
:10218800A0642846FFF7D0FD0421E0642846FFF745
:10219800CBFD0321E0652846FFF7C6FD3B782066A6
:1021A8000020002BAFD128460121FFF7BDFDAAE78B
:1021B800022B14D00723E3650D239FE7D8F8C42723
:1021C8000AF1010A52450BF1900B3FF763AF009AF1
:1021D80001981368C8F8D83707B0BDE8F08F236CAA
:1021E800002BE7D10823E3650C2387E7032B14BFF3
:1021F800112309230193019A0023082128460592F7
:1022080003930493FFF790FD397F009B032914BFC4
:102218000221012118602846FFF786FD009A5060C8
:102228002CE74FF0FF30D7E72C4B2D4A44F66C11C2
:10223800C2F20001F0B403F5527001F5FE6701F631
:10224800280601F5176501F68C240B618A610F6079
:102258004E608D60CC60486101F2EF73002201F698
:10226800270103F8012F8B42FBD11E4B002103F5F8
:10227800A47203F8011F9342FBD11B4B002103F505
:102288008E7203F8011F9342FBD1184B03F590524D
:102298001032002103F8011F9342FBD1144B002197
:1022A80003F5527203F8011F9342FBD1114B002131
:1022B80003F5D95203F8011F9342FBD10E4B03F5E6
:1022C80008520432002103F8011F9342FBD144F65F
:1022D8006C10C2F20000F0BC704700BF0866002016
:1022E8007084002093510020DB520020F753002017
:1022F800076600204F6900206F840020704700BFE8
:102308002DE9F04F8FB00691002800F0188106687B
:10231800002E00F0148147680A97002F00F00F8103
:1023280087680897002F00F00A81C7680797002F71
:1023380000F00581D0F810C0BCF1000F00F0FF805C
:10234800D0F8BC2700230CF546779A420D930C93DE
:102358000B9735DD069FDDF81C80099607EBC70A49
:102368000A9F07EB0A1A069FC7EB4719089F07EB56
:1023780089090B9F0AF1280A3E4654464F469B4658
:1023880008F590558146E2468DE890000296404651
:102398002A46099B514600F0BDF9A860D9F8BC3718
:1023A8000BF1010B5B4504F1480407F13E0706F108
:1023B800180608F5106805F10405E5DC099ED44601
:1023C800306A002859D0079F07F59054A368002B5E
:1023D80074DDE368002B71DD410804BF01200CADFA
:1023E8001AD0C2070BD5DCF83033002B40F09D80A3
:1023F800DCF84423736B013233F9121004E094E8DB
:102408000A009942B8BF19460CAD07982A4602F04F
:102418001DFA306AC3071DD533782168069F002B43
:102428002ED107EBC7030A9F07EB03130B9F0097F7
:10243800069F40100190C7EB471C089FD3F88820DF
:102448000798029207EB8C0303953E33324602F05D
:102458002FFA306A88B194E80C000C980D99B0FAFC
:1024680080F09A42A8BF13460138B1FA81F10139C8
:10247800A060E1602360636000200FB0BDE8F08FCA
:1024880007EBC7030A9F07EB0313089F07F1F8023E
:102498000B9F01920097069F40100290C7EB471CC4
:1024A800089FD3F888200798039207EB8C030495BC
:1024B8003E33324602F08EFB306ACBE72568002DAA
:1024C80016DD079F012107EB85053B46CCF200018D
:1024D8006FF0404753F8042B8A42B8BF43F8041CF6
:1024E80004DBB2F1804FA8BF43F8047CAB42F1D1C2
:1024F8006568002D7FF770AF079F012107F510630E
:1025080003EB8505CCF200016FF0404753F8042B2C
:102518008A42B8BF43F8041C04DBB2F1804FA8BF5D
:1025280043F8047CAB42F1D156E7DCF84023736BE7
:1025380003EB4203B3F9301001EB410164E74FF0BC
:10254800FF309AE72DE9F04F40F2F47603F00304E8
:10255800C0F6010606EB84079B1006F1280E8BB027
:102568000EEB841E1F2BA8BF1F23D7F82871DEF897
:10257800084002971B2BD8BF03F1030C0546DEF871
:102588000470DEF80C00CDF80CE0D4BF2CEAEC7C2B
:102598004FF01F0C47FA0CF744FA0CF447F6991859
:1025A80040FA0CFC40F2F47B0020CDF824C0C5F6BC
:1025B8008228C3F1000CC0F6010B07970894069017
:1025C800CDF81080CDF814C0019610E00AAE06EBE5
:1025D8008E0E5EF8107C002C01F1040140EA070021
:1025E800B8BF7F42013A41F8047C00F08D8055F86D
:1025F800044B24F0004EBEF1030FE7DDBEF10F0FD0
:102608000BDCDDF80C80002B58F82E70B6BFDDF817
:1026180014C01F4107FA0CF7DDE7BEF13F0F1ADCC3
:10262800019EDDF8088006EB8E0EDEF8F87087FB59
:1026380008E8DF1E002FA8BF48FA07F7CBDA7F4269
:102648006FF0004646FA07FEF045D4BF08FA07F7D0
:102658006FF00047BFE74FEA4E47B7F1006FBABFC8
:102668004FEA4E574FF0040C4FF0000CB7F1005FE3
:10267800BCBFBF000CF1020CDDF81080B7F1804F31
:10268800B8BF7F004BF6A95942F2631EB8BF0CF1E0
:10269800010CC1F2850E4745C2F6A019C8BFF14624
:1026A800DFF86CE0B846D8BFDE4689FB08A8DEF83C
:1026B8000490C144B84689FB08A8DEF80890C144D4
:1026C800B84689FB08A8DEF80C60B04488FB079779
:1026D800DDF80480DEF810E008EB8C067744D6F8C5
:1026E800F86187FB06E6F600DDF8088086FB0878C7
:1026F8000BEB8C0C40F2F47EDCF81872C0F6010E7D
:10270800CDF804E0DF1B95E70BB0BDE8F08F00BF04
:10271800080801082DE9F04F8FB0189D06906C69E4
:102728000591022C18BF0D25099208931CBF04952A
:102738004FF0160800F0FC80189E089C326C236A43
:10274800B5685B0802F1010207954FF000014FEAF6
:10275800420218BF023D03920B9118BF0795B8F1CA
:10276800000F00F0F780079ECDF808804FF00009B1
:10277800C6F1D00A4D464F46CDF804A0DFF8DCB1CB
:10278800DDF82480CA46DDF8209003E0029DAC42C3
:1027980028D02546189CD9F83430E26B199833F9BB
:1027A80015106C1C204433F9146010F8013C761A9B
:1027B8000BEB04000AB110F8012C0699134401EB45
:1027C8008700039A019902FB031332460146FFF77B
:1027D800B9FE37444AEA000A00B10B95D8F8003030
:1027E8009F42D3DB0B9AD146049C1A9E00230B2CE4
:1027F80072613360F360B3607360336171DC049DB0
:10280800079E0B9505EB45030C950D95199C059DA9
:10281800DDF810A00197C6F1D0061C44043D0296CD
:1028280000940795089E189F736B03EB4A020AF100
:102838000101B2F92E30B2F93080019A0491C3EB4C
:102848000808069B002603EB820B4B464FEA8804D8
:10285800D14635469A46009BBA6A02992B4401EB49
:10286800C202DB7D039901FB032305990BEB0600EC
:1028780031444246FFF766FE043726444AEA000A16
:1028880010B10BAA42F825900135032DE3D1019D23
:1028980008EB48031D44B8F1000FD146019513DD3C
:1028A800079B19464FEAC808214453F8042FCBF870
:1028B80000201A59CBF8042053F808208B42CBF893
:1028C80008200BF10C0BF0D1099E019C33689C4247
:1028D8002CDA009C049D03340D2D009407D0AA46E1
:1028E800A0E7B9FA89F001380FB0BDE8F08F019F71
:1028F800099D189E2F600B990C9AB5690D9B1A9E1D
:10290800B9FA89F08A42ACBF14460C46002D14BFB0
:10291800022501259C42B8BF1C460138356071600C
:10292800B2603461F3600FB0BDE8F08F2746DFE78F
:10293800AB6963B1089E96F8008003240494B8F14B
:10294800000F14BF4FF006084FF00808F4E6049390
:102958009846F1E64246C146474645E72C0A010833
:102968002DE9F04F9BB0089315910B92249B0028FA
:1029780000F01D810168002900F019814468002CCD
:1029880000F015818268002A00F01181C0680F905C
:10299800002800F00C812598259DC000024603EB15
:1029A800C3031B012A44139003EBC203089828337E
:1029B800E31800280A93C0F2FA801B69002B40F044
:1029C8000B830A98496B426B836B013213440133C2
:1029D80031F9127031F913100A9A0F9C5368259D2A
:1029E8005B0004EB85020C930C980B9C02F590534A
:1029F8001AAA0E92B0F5107FA8BF4FF410700E9D62
:102A08001860149300238142A8BF014645F8103D81
:102A18000C908742A8BF074604932598139B226809
:102A28000F9C0E95034404EB0323189111930C9902
:102A3800159C199140F6A43540F6A42040F624438D
:102A4800C0F60105C0F60100C0F601031797002182
:102A580010950D90129309940A9B049D11982B448C
:102A68007F1A002F00EB810CDB6940F3D1820899B3
:102A78000029C0F29C800D9C109D54F833B004EBE3
:102A8800C301524212F0070291F804A055F823102E
:102A98001DBF099B099C1878DDF824E01DBFC2F111
:102AA800200300FA03F304F1010E1346BAF1000FF4
:102AB80040F082807A1E52080CF1080303EBC2032F
:102AC8000025CCF80050CCF804500CF1080C9C45BB
:102AD800F6D100210B9C08982368049D0B44401AEA
:102AE80009990890043503F0070201EBE3010C2D66
:102AF80004950991226000F059810E9B0E9C2B448D
:102B080029595F68A8E7129830F81150059905F01F
:102B18000F05C5F120058C1C0020F246B8F10F0FF7
:102B280040F381829AF800909AF801E0C2F1180601
:102B3800C2F1100109FA06F60EFA01F13143A8F1C3
:102B480010080AF1020A0B431032002F40F3998251
:102B58000CF1080908E00A2AC8BF002F4CF8086CD5
:102B68004CF8041C40F38A8223FA05F134F811105A
:102B78004FEA113E03FA0EF3C1F30316CEEB02023D
:102B880003F0004E1EB14EEA06065B00013AC1F39F
:102B9800032103F0004E19B14EEA01015B00013A2E
:102BA8008242CC46A7F1020709F10809D3DA4FF0AF
:102BB800FF301BB0BDE8F08F1298089C00EB410075
:102BC800BAF1010F0590C2EB04089CD0AAF10201EA
:102BD800C9B20129EBD8CBF1200100240BF1010582
:102BE80005980791069402957146B8F10F0F40F3C6
:102BF800C98191F800E04D78C2F11806C2F11004BD
:102C08000EFA06F605FA04F42643A8F11008023174
:102C1800334310320A2AC8BF002F15DD048804F098
:102C28000F04C4F1200523FA05F5013530F81560C5
:102C38005FEA163E12D1121B0A2AC8BF002F03FAF8
:102C480004F300EB4600E9DC002FCEDC069D089873
:102C5800521B08EB0201411ACB0FDBE1BAF1030466
:102C6800C6F30315604260410F2D08BFBAF1030F88
:102C7800CEEB020203FA0EF3C6F30326019036D117
:102C8800DDF8089002EB0800002E18BF09F10109D1
:102C980081458CDC4A4522DAD443A646CE4401EB72
:102CA800DE0E03940EF1010EC2F11804084610F866
:102CB800015BA540704543EA0503A4F10804F6D179
:102CC800039DA9444FEAD909A8F10808083209F177
:102CD8000100B8EBC90802EBC902014452D40798B5
:102CE80023FA00F5CBEB02020F3503FA0BF325B1FB
:102CF80003F00040013A05435B0001980F2E14BF12
:102D0800002000F0010050B3029C02EB080084424E
:102D18003FF74DAF944240F35D81C2EB0B06F608D6
:102D280006F1010E8E44C2F1180011F8014B8440DF
:102D3800714543EA0403A0F10800F6D1A8F1080898
:102D48000832B8EBC60802EBC60225D4079923FA65
:102D580001F6CBEB020271460F3603FA0BF326B1EC
:102D680003F00040013A06435B00069CA242FFF6CE
:102D78001EAF6446023F44F8085B0598CCF804602F
:102D8800A44647E74244501E4FF0004444FA00F07E
:102D980003404FF00008A2E74244511E4FF00040A4
:102DA80040FA01F10B404FF00008CFE711990C9D54
:102DB8000A9BDDF824B05C6C01EB8500149D089932
:102DC8002D6800290195D8BF002440F3898040F67A
:102DD8004C21C0F6010140F6442351F82450CDF8A7
:102DE80008B0C0F6010340F65421524212F007021F
:102DF800C0F6010105EB010953F824101FBF9BF829
:102E080000405D46C2F12003013518BF04FA03F300
:102E18000C9C18BF0995089DDDF824B0C4F50F7CFB
:102E28004FF0000E08BF13460CF1010CC1F1200849
:102E38007446C2EB050A644550DABAF10F0F76DD25
:102E48009BF800709BF80150C2F11806C2F11001FE
:102E580007FA06F605FA01F13143AAF1100A0BF157
:102E6800020B0B4310320AE080E8C000856004348E
:102E78001030644540F8041CDDDA092ADBDD23FA4A
:102E880008F119F801100D09C1F3C006521BAB4037
:102E98002EB103F00046013A46F001065B00C1F38B
:102EA80080052F462DB103F00047013A47F001078E
:102EB8005B00C1F340052DB103F00045013A45F030
:102EC80001055B0011F001011FBF03F0004102F191
:102ED800FF3241F001015B007245C5DADDF808B048
:102EE800019B14982344B3F5107F036011DA139AF9
:102EF800259D0F982A4403EB821300EB830300F609
:102F0800FC0101EB0221043B002243F8042F8B4211
:102F1800FBD10B99089A0B68159C13440BEBE30043
:102F2800001B03F007030B601BB0BDE8F08F0AEB32
:102F380002010029D2DDBAF1000F16DD9BF800600E
:102F4800C2F11805BAF1080F06FA05F543EA0503B8
:102F5800C3BF9BF80150C2F1100205FA02F20BF14F
:102F6800010BC4BF13430BF1020B4A1E4FF000457F
:102F780045FA02F213404FF00A0E01F10A024FF02F
:102F8800000A7CE708EB0204002C7FF710AEB8F1CA
:102F9800000F12DD0E78C2F11805B8F1080F06FA15
:102FA80005F543EA0503C3BF4D78C2F1100205FADF
:102FB80002F20131C4BF13430231621E4FF00045D3
:102FC80045FA02F2134004F10B020B2406944FF069
:102FD80000081FE68E46B9E60A9A5369022B7FF469
:102FE800F0AC9369002B53D1536B496B45F25652A1
:102FF8000133C5F2555282FB0342A2EBE37301EBA6
:1030080043034FF41071B3F92E7007EB4707E3E45D
:1030180000231946089A8A42B8BF43F00103002BDF
:103028003FF458ADC3E508EB020100297FF7BFADB7
:10303800B8F1000F16DD9AF80060C2F11800B8F177
:10304800080F06FA00F043EA0003C3BF9AF801002C
:10305800C2F1100200FA02F20AF1010AC4BF1343D6
:103068000AF1020A4FF000404A1E40FA02F21340E9
:103078000B2001F10B024FF0000866E5002F3FF727
:103088004DAD121A02EB0801089A511ACB0FC1E78D
:103098000B7843B90A9D4A6B6B6B01334FF410717F
:1030A80032F9137098E44B6BB3F93670B3F93420E6
:1030B800B3F90C30BF1A03EB47074FF410718BE4D8
:1030C800022A2DE9F04323D043F2484302EBC2021F
:1030D800C0F6010303EB021C0CF148040CF18C0E42
:1030E80004380CF16C0C01F1440750F8043F5EF809
:1030F800045954F8046B1A4686FB028241F8042BE3
:1031080085FB0323644547F80439EED1BDE8F08315
:1031180043F24844C0F601048268D4F838E18EFBD3
:10312800023243F24844C0F601048369D4F82041CE
:1031380084FB035343F248441344C0F601040B6074
:103148004268D4F83C7187FB023243F24844C0F627
:103158000104C369D4F8244184FB035343F248446F
:103168001344C0F601044B600268D4F8406186FB42
:10317800023243F24844C0F60104036AD4F82841F5
:1031880084FB0353134443F24842C0F601028B60A8
:103198000468D2F8445185FB043443F24842C0F62F
:1031A8000102036AD2F82C2182FB03C32344CB60BB
:1031B80043F248434268C0F601039446D3F84841B5
:1031C80084FB0C3C43F24843C0F60103C269D3F8C0
:1031D800303183FB028262440A6143F248428368C9
:1031E800C0F601029846D2F84C3183FB082843F216
:1031F80048498269C0F601099446D9F8342182FB0E
:103208000C9C08EB0C024A6142698EFB02C28A617F
:10321800026987FB02E2CA61C26886FB02720A621F
:10322800C26885FB02624A62026984FB02528A62B2
:10323800426983FB02020023CA624B640B64CB63BE
:103248008B634B630B63BDE8F08300BF2DE9F04748
:103258008646ABBB12F0010073D0DEF88001DEF8C1
:103268008017DEF88028DEF88073DEF88064DEF8E8
:103278008055DEF88046C0F1000CDEF88002CEF8FA
:1032880080C1C0F10008DEF88000CEF88082C1F16C
:1032980000097F425142764242426D4264421846DA
:1032A800CEF88073CEF88064CEF88055CEF880468C
:1032B800CEF88097CEF88018CEF88020BDE8F08749
:1032C80012F001003FD1C3F11F050127AF400439B7
:1032D800013F0EF5106CDEF80040E21744FA05F6DF
:1032E800B24218BF82EA070404FA03F2DEF880400B
:1032F800CEF800204FEAE47844FA05F9C8454FEAC9
:10330800E27618BF87EA08049C407240CEF88040F5
:10331800921BE61786EA04084C68C6EB080644FACE
:1033280005F94FEAE478C84518BF87EA08040EF59E
:10333800807E16439C40F44540EA060041F8044F5D
:10334800C9D1BDE8F087C3F11F02012696400439B0
:10335800013E0EF510670020DEF80050EC1745FA24
:1033680002FC644518BF84EA0605DEF88040644222
:103378004FEAE47844FA02F9C84505FA03F518BF9C
:1033880086EA08049C404FEAE57CCEF80050CEF867
:1033980080408CEA050AE51785EA04084C68C5EB05
:1033A800080544FA02F94FEAE478C84518BF86EAE6
:1033B8000804CCEB0A0C0EF5807E45EA0C059C400F
:1033C800BE4540EA050041F8044FC5D1BDE8F08785
:1033D8002DE9F04FCDB021911D92002800F03187E2
:1033E8000368002B00F02D8744682094002C00F01F
:1033F8002887C5680C95002D00F023874069229026
:10340800002800F01E87219EDDF87480219F19781E
:10341800DDF874905A6BF60030464FEAC808384415
:103428004346002914BF0621082100014B4400EB44
:10343800C30032F911202496204448F63966C3F6B1
:10344800E30686FB02B4C16BCDF88C80D217C2EBC1
:10345800A40212B202291E9200F0D98609F59063DF
:1034680040F2262255F82330934240F33B8540F240
:10347800362520260E954FF01F0E0A96239B1D9E7B
:103488000C9F334407EB0327BEF1000F259740F349
:10349800CC8643F2B822C0F60102259BD76855684E
:1034A80096680397576A1069946901950596D569D6
:1034B800166A51690997976A0290049408950796C5
:1034C800D2F800B0D66A156B546B906BD2F83CA05A
:1034D80006910B97483353F804CCD3F80080614623
:1034E8008BFB01214246019F87FB02928A1A5200F8
:1034F80043F8042C8BFB082887FB0C2C08EB0C02E8
:1035080053F808CCD3F80480059F52001A6061462E
:1035180087FB01214246039F87FB02928A1A5200C9
:1035280043F8082C059981FB082887FB0C2C08EB2D
:103538000C0253F80CCCD3F80880029F52005A6052
:10354800614687FB01214246069F87FB02928A1A41
:10355800520043F80C2C029981FB082887FB0C2C9D
:1035680008EB0C0253F810CCD3F80C80049F5200DF
:103578009A60614687FB01214246089F87FB0292B9
:103588008A1A520043F8102C049981FB082887FBFB
:103598000C2C08EB0C0253F814CCD3F81080079FBE
:1035A8005200DA60614687FB01214246099F87FB8A
:1035B80002928A1A520043F8142C079981FB0828B2
:1035C80087FB0C2C08EB0C0253F818CCD3F81480AA
:1035D8000B9F52001A61614687FB0121424686FB18
:1035E80002928A1A520043F8182C87FB082886FB97
:1035F8000C2C08EB0C0253F81CCCD3F818805200A2
:103608005A61614685FB0121424684FB02928A1A6F
:10361800520043F81C2C85FB082884FB0C2C08EB73
:103628000C0253F820CCD3F81C8052009A616146F2
:1036380080FB012142468AFB02928A1A520043F813
:10364800202C80FB08288AFB0C2CC4444FEA4C022F
:10365800BEF1010EDA617FF43DAF249BDDF8848072
:10366800239ADDF87490209C43441B014A4403EBE1
:10367800C20323441C6C1D9D0C9A0E9E229BAD0018
:103688002A4402F5905227951168279F8E42A8BFB9
:10369800314648F639653B4403F5D85301F111002A
:1036A800C3F6E30585FB0085C017C0EBA5009E683F
:1036B8001D681B6911601B901C9517961893002CA8
:1036C80000F09A852498DDF88480DDF87490239BB7
:1036D800229C0C9E209D40444B44000109F28242EA
:1036E80004EBC31100EBC30004EB03230A9C2693ED
:1036F800283056F82230054401F59051002C1295D7
:103708001491199340F37C850026C3F107051A9597
:103718001596062BC8BF35460996259E16954EF672
:10372800A1374BF68B6841F67E294DF6495B42F688
:10373800326C43F24844269D0791C6F6D967C6F213
:103748000D28C1F23A69C5F2462BC7F60E6CC0F6D1
:1037580001043C360597CDF80C80CDF80890CDF8DB
:1037680018B0CDF810C01F9408950E96129F7C696A
:10377800BB690C942BB11E9D099EB542C8BF00249D
:103788000C94DDF85C80DDF82490189F199CB945ED
:10379800B8BF4FF00008062CCDF83C8000F38F84AA
:1037A800DDF83880079C1A9B0026374628ADA8F11B
:1037B800480E40468268416842FA03FCC7EB0C0792
:1037C8001941BE1BCF1B216A6E64083841FA03F207
:1037D80070452F622262A5F10405A4F10404E9D121
:1037E8002A9ADDF8B090309E2898299BDDF8B4C05D
:1037F800DDF8BCE02E99DDF814B0C9EB020AC6EB7F
:103808000A0A91443244319E401003EB0C0503EB45
:103818000E07411A761001960D91EC1B2B9E8BFB1F
:103828000686CCEB0303CEEB030BDDF814C08CFB50
:103838000B3BCE46DDF80C8088FB0E3E9446DDF847
:10384800088088FB0C3CC9EB0202DDF80C8088FB81
:103858000232DDF8088088FB09392346DDF8188034
:1038680088FB0313DDF8108088FB0717DDF8188044
:1038780088FB0515DDF8108088FB04142E99760066
:1038880000EB61004FEA4C0C0CEB4E0E4FEA490975
:1038980000EB060C7F006400C4EB4505C9EB42024F
:1038A800841B07EB43030CEB0E090EEB020799444C
:1038B800A644C3EB0E01CDF8A090DDF834900B912F
:1038C80009EB6A0ECAEB090104EB020AE41B624425
:1038D800C7EB0C0C0B9F339830974FEA4B08EB1A49
:1038E80005EB0A07521B359D2C910EEB08093999F7
:1038F800329E2A97C8EB0E0E471B9C44CDF8BCE0BD
:10390800C3EB040E369C389BCDF8A490CDF8B4C018
:10391800DDF80490CDF8ACE0C1EB070C379F2E9290
:10392800344433440544E21A0844C7EB0908DDF877
:10393800D0E0DDF814B08BFB0E1E3699389F761A4E
:10394800C7EB060A8BFB0A1A2F46DDF80C9089FB99
:1039580007170146DDF808B08BFB0161401B89FBA6
:1039680000608BFB05651646DDF818B08BFB0696E4
:10397800DDF810B08BFB0393DDF818B08BFB0494D3
:10398800DDF810B08BFB0292490001EB4701DDF82E
:103998000490379F6D00C5EB40054FEA4E0E09EBCA
:1039A80067005200C2EB44025B0000EB0E04CEEB52
:1039B800000003EB460301EB05094FEA4A0700EB59
:1039C800050A254404EB010BD61AC9EB040401448B
:1039D800C9EB0009AD1A08EB6C0E03EB0B00C6EB44
:1039E8000909379526440F9D3190CC1A0C9BCDF8C8
:1039F800D0900EEB070BC7EB0E07CCEB080C9244EC
:103A0800389755EA0307CDF8D4C0CDF8C8B0CDF83B
:103A1800CCA03696399440F06783074EDDF820C075
:103A28000B99DDF81CE0234606F164083C462FADEF
:103A38000DF19809E24603E0502D0108AB6A696868
:103A480058F8042D82FB030389105A18DEF8000089
:103A58004EF8042B56F8082C5B1A41429346C91AB3
:103A680081FB0B2B56F8042C03EB8B0381FB02B272
:103A7800C0EB8202D017D91780EA020BC0EB0B000B
:103A880081EA030BC1EB0B01043D01434D454AF8A4
:103A9800073006F10806CCF8802807F18007ACF15A
:103AA800800C44EA0104C9D108980799099A169B21
:103AB800FFF7CCFBDDF824C0089D079EDDF8548095
:103AC800DDF8289020430E9C0CF1010C4834043595
:103AD800243648EA0008CC45CDF824C00E94089551
:103AE8000796CDF854807FF441AEDDF894B0DDF848
:103AF80050C009EBC9030BEBC30B0CEB830CCDF8DF
:103B080094B0CDF850C00A9D1B9EB54280F23A820F
:103B18004FF6833BDDF898C0149C1F95C2F2201B1A
:103B28004EF6A13747F21D5847F69A190CEB850C4B
:103B3800C6F6D967C7F6A338C5F68229CDF838B0D6
:103B48003AADDDF894B00197CDF82480CDF83090E7
:103B5800CDF840C006940595179FDDF82880189E7B
:103B6800199CB045B8BF0027062C049700F39C8227
:103B7800069E069BC4F10705243616952A46584624
:103B880011960BF10401354651F8044C144141F8E3
:103B9800044C44681441446053F8044B1441AB424C
:103BA80001F1080100F1080043F8044CECD1DBF8FE
:103BB8003C50DBF83040DBF82400DBF81810DBF869
:103BC8000C20DBF80030019E641B001B091AC1EBB6
:103BD800020C401BCCEB0309C0EB0C0C4FEA690943
:103BE8004FEA6C0C86FB013109EB64074A0002EBD3
:103BF80007080346C4EB0909BF1A86FB03235B00C9
:103C08000CEB650203EB020E099C84FB0E1EC5EB50
:103C18000C0C4FEA8E0E0C9D85FB0C1CD21A4FEA39
:103C28008C0C0E9E86FB0232DBF84030DBF8341039
:103C3800DBF82800DBF81C50DBF81040C91A401AE2
:103C48002D1AC3EB000ADBF80400641B001B92006A
:103C58000790B81809EB0C060290BA1ACCEB090CBD
:103C680008EB0E07CEEB08092996DDF81C80029EAA
:103C78000897CAEB040428970392CDF8B0C04FEA1E
:103C8800680064102A962B92CDF8B490019F87FBA8
:103C980005256D0000EB610605EB06085746761B07
:103CA800C1EB000C019D85FB0727790004EB630A33
:103CB80001EB0A00099F87FB0020E31A80000C9C97
:103CC80084FB0323C1EB0A0A4FEA830E0E9D85FB92
:103CD8000A3ADBF84430DBF83820DBF82C10DBF844
:103CE8002050DBF81440D21A0CEB0E07891A6D1A13
:103CF8002F97DBF80870641BC91A3F1B641A0B94D2
:103D080008EB000412944FEA8A0AC0EB0800CEEBD5
:103D18000C0EDDF82C800D9706EB0A0CCAEB060A90
:103D2800129E07904FEA6804CDF8C8E0CDF8C0C0ED
:103D3800CDF8C4A07F102E963390DDF8048088FB60
:103D480005056D0007EB620C05EB0C0EC2EB0708CE
:103D5800C5EB0C0C019D85FB0121490004EB6302B6
:103D68008818099E86FB0050E31A80000C9F87FB89
:103D78000343511A9B000E9C84FB01218C0008EB25
:103D88000307C3EB0806C0EB0E0370440CEB0405F5
:103D980013903695139D049A069805993993C4EBA8
:103DA8000C043794359738963495FFF789F943F220
:103DB800484C002228AB109C0398DDF80880CDF809
:103DC80068B0C0F6010C04929B46CE46059FBE58CB
:103DD8003B46B60013442660DD68AD004FEAE5793E
:103DE800F117C4F88051039189EA05050B95039DE5
:103DF800CDF808906E40DCF820110F9681FB00503A
:103E0800996900EB8101CE17C4F800137140DCF802
:103E18002C510D9185FB0E1E5D6A0EEB8501CD17A9
:103E2800C4F88014694040462591DCF8387187FB56
:103E38000080DCF8201181FB0A8A196BDDF82080EC
:103E480082440AEB8101C4F800164FEAE179DCF8F4
:103E5800440189EA010A80FB08180799DCF82C71EB
:103E680087FB01014144DDF808E0DDF82C80DB6BBD
:103E7800CEEB0807DDF83C80DDF80CE0CEEB08005F
:103E880007430D9801EB8301259BC4F88017861B17
:103E98005D1B3743CB172F43C9EB0A0A83EA010896
:103EA800049D47EA0A09C3EB0803043249EA0303FD
:103EB8001D430C2A0CF1040C04F18004ABF1040B33
:103EC80004951FD028AE28AB1344B658DBF82C70E5
:103ED800DBF814E0D868D3F824A0DBF8088008964B
:103EE800079773E7073386FB03C6DB17C3EBA60EFA
:103EF8000EEBCE035B0008330EF101040E930A9417
:103F0800FFF7BCBA2F9A309B129C069DDDF868B06B
:103F18001198A11092109B1085E80E0005F10C0372
:103F280034A9139A01E051F8042F921043F8042B96
:103F38009842F8D10699169B10980A9AFFF786F9C5
:103F48000A9E049F109DDDF86C90119C01360A961C
:103F5800DDF82880159E0694384304350643C84585
:103F68000BF1480B109515967FF4F6ADDDF87CB093
:103F7800DDF850C0CBEB080303EBC3030CEB830C59
:103F8800CDF850C00A9D1C9CA54280F23D81269E1A
:103F9800039506EB85083AAFCDF80480DDF8548028
:103FA800059700270A9D179A189C14980599A54209
:103FB800B8BF0022FFF784F8DDF850B0059B0198E0
:103FC80045F3000905F0010C0DF5987EABF10406E8
:103FD80000251968890001605A6889EA82026244EA
:103FE8004FEAE27ACC178AEA020BCAEB0B0A84EA98
:103FF800010BC4EB0B04083311434AEA040473456C
:10400800C0F8802045EA010546F8047F00F5807075
:1040180048EA0408DDD10A9C039B019E002D18BFC5
:104028002346149D0393243514951C9D01340436AE
:10403800AC420A940196B5D1CDF854800A9C1F2C45
:1040480011DCDDF82880269E002106EB8802404618
:104058000023D1508033B3F5106FFAD101302028F6
:1040680002F10402F4D1219D249B239A1D9E209FD6
:10407800DDF89C80039CDDF854902B441B013244EE
:1040880003EBC202229B1E9D3A444344D16BB9FA0A
:1040980089F203F5D853013A99601C601D619A6151
:1040A80000204DB0BDE8F08FDDF818904FF0000803
:1040B80009F12409CDF85880CDF8449077E50E9F92
:1040C800002005463AACA7F148063B4699685A686D
:1040D8004D1B281A44F8040D083B551BB34244F8FD
:1040E800245CF3D1FFF77CBB3AAF0F9A0798DFF84F
:1040F80058A13946FEF7E4FF0C9EDDF87C90DDF808
:104108002CE006EBC6080023214609EB0818BC463C
:104118001A461C462FAD089E02E0A96AD5F804E0AD
:104128000AEB0200006A80FB01914FEAAE0EDDF84F
:104138001CB001EB0E004BF80300C1EB0E0158F860
:10414800030081FB00E008EB020957F803E0D9F807
:10415800447070448000BE4681FB0E7E0CEB020169
:10416800C717496C714489004FEAE17E8EEA010B5A
:10417800CEEB0B0E87EA000BC7EB0B074FEA431990
:10418800043ADDF820B04EEA070E12F1240F4BF87E
:104198000900A5F10405C6F8801803F1040344EAF0
:1041A8000E04A6F180066746B7D17DE4DDF8748079
:1041B8000C99229A0C9F0A944FEA8808414401F509
:1041C800905142440868CDF89C800828B8BF082060
:1041D80000F1110502F5D85286FB0596ED17C5EBDF
:1041E800A60514681B9595681269086007EB0323F8
:1041F80025931C941795189200271E97FFF762BA0B
:1042080000240A9415947EE40A9E039616E7046C2B
:10421800002CCBD01E9F07F1FF3E0EEBCE035B00B8
:1042280008330E930A97FFF729B9249ADDF884809A
:10423800209C4244120102EBC30323441C6CFFF789
:104248001ABA4FF0FF302CE7902D01082DE9F04FF6
:1042580095B0834602911746002800F0E082046872
:10426800002C00F0DC8245680095002D00F0D78214
:10427800D0F80880B8F1000F00F0D182126813441A
:1042880003F10E01073358BF1946C91008A8029A4E
:10429800FDF744FD3968002940F020812278002A82
:1042A8006ED11E9E1F9D1E9CF600ED0033460396A0
:1042B8001F9E0495234428461B01304403EBC0008D
:1042C800009B2830184442F6B453D0F80CC041691A
:1042D800C0F60103C6EB461E03EB4C054FEA4E0E33
:1042E800C4EB44140EEB840402296D7813F81C60A7
:1042F800444400F0F9811E9B002B00F085811F9B30
:1043080000984FEA031909F10809F04450F80930F8
:104318008144002B40F06A819A4608A83146FDF78F
:1043280003FD04F80A000AF1010ABAF1060FF4D1F4
:10433800D9F80430002B00F02882062318F803204F
:10434800E25401330B2BF9D1D9F80830002B00F0D7
:1043580034820B2318F80320E2540133102BF9D1CF
:10436800D9F80C30002B00F01E82102318F8032017
:10437800E2540133152BF9D100236375A3758DE041
:104388001E9B1E9D1F9EDB00F60003932B441F9D62
:10439800049632461E9E2A441B0103EBC203C6EB59
:1043A8004612266A009CC5EB45112833920002EBA1
:1043B80041022344424416F00106D968019202D012
:1043C800012D00F07A81B1F5C87F80F2EF8046F2C6
:1043D80067640811C6F2666484FB0054CA17C2EB0E
:1043E800640202EB8204041B4FF0000CC1F381004D
:1043F80001F003010E900C920D940F91E646604671
:104408005A69022A18BF002400F0368100EB4000E8
:1044180042F6B4512044C0F6010101EB800191F845
:10442800200091F82140109091F8220091F8231073
:10443800119412901391002E54D110AD0595022AB3
:10444800C3F83CE058D0019CDDF81490CDF818B0C2
:104458000026B04604F1FF3A079759F80670002F76
:1044680012DD0CAADDF804B0B55808F1FF330AEBE9
:1044780008049B443C4408A82946FDF755FC0BF862
:10448800010FA345F7D1B8440436102EE5D1019D9C
:10449800DDF818B0079F0023AB756B751E9E039B54
:1044A8001F9C049A009D029933441B01224403EB8C
:1044B800C2022A4404EB4603926A03F5FC7308A877
:1044C8004BF823203A68FDF78BFC3B68184400F052
:1044D80007033B60C01015B0BDE8F08F08A8FDF7D2
:1044E80023FCDBE61F9E012E00F0CC8010AC022AD4
:1044F8000594C3F83CE0A6D19B69002B00F06781C6
:104508000C9C019E002508A82146FDF70DFC70555E
:104518000135062DF7D14FF001080323DDF814A06B
:10452800019CCDF818B04FEA88020CAD15449244AE
:1045380004F1170205950026079793465AF80620B6
:10454800002A20DD02EB0309019D059A03EB4303D2
:104558002B44945909EB490503F117075D4421469B
:1045680008A8FDF7E1FB2146387008A8FDF7DCFB39
:104578002146787008A8FDF7D7FB033707F8010C28
:10458800AF42ECD14B4608F10108B8F1040F06F12F
:104598000406D3D1019CDDF818B0079F002384F8E6
:1045A8003D3084F83C3084F83B3077E7B1F5FA7F4A
:1045B80042DB45F25652A1F5FA71C5F2555282FB1B
:1045C8000142A2EBE17202EB42009C690C92091ACB
:1045D80000200D910F900E90002C00F0FA80844678
:1045E8000E910D924FF0010E022009E718F80230E3
:1045F800A3540132062A3FF49BAE18F80230A354A4
:104608000132062AF2D193E6984608A83146FDF70A
:104618008BFB04F8080008F10108B8F10B0FF4D17E
:1046280008A82946FDF780FB04F8080008F10108EE
:10463800B8F1150FF4D131E7A1F5C87146F26760FA
:104648008C10C6F2666080FB0420CA17C2EB6002B9
:1046580002EB82050C925A690020641B01F00301E9
:10466800022A84460D940F9086460E914FF0010061
:1046780018BF00247FF4CAAE996900290CBF012431
:104688000224C3E610AC08F1F806304600210CAD50
:1046980005949A46A146C8EB000459F80130344401
:1046A800043044F8E43C6B580431102944F8F43CD5
:1046B800F1D15346C8F8F8C0C1E64A10B32A01F050
:1046C800010C40F38B80F32A00F3AC80B43A10114C
:1046D800C2F381010C9002F0030200200F9086467D
:1046E8000D910E9204208BE6836999466BB1904632
:1046F80008A83146FDF718FB04F8080008F101087E
:10470800B8F1080FF4D14FF0030909EB4908A044A8
:1047180008F11708314608A8FDF706FB314688F866
:10472800000008A8FDF700FB314688F8010008A83A
:10473800FDF7FAFA09F10109B9F1060F88F8020044
:1047480008F10308E6D12646294608A8FDF7ECFA41
:10475800294686F8290008A8FDF7E6FA294686F8CA
:104768002A0008A8FDF7E0FA09F10109B9F10C0FD0
:1047780086F82B0006F10306E6D1002384F83D30C5
:1047880084F83C3084F83B3088E64FF0060A08A8E5
:104798003146FDF7C9FA04F80A000AF1010ABAF12C
:1047A8000B0FF4D1D0E5102608A82946FDF7BCFA6E
:1047B800A0550136152EF7D1DEE50B2608A82946A7
:1047C800FDF7B2FAA0550136102EF7D1C8E5984684
:1047D800A4E6A4464FF0010E022011E648F639601F
:1047E800C3F6E30080FB0250C917C1EBE00404EBF9
:1047F800C4004AF6AB21A2EB8002C2F6AA2181FBD3
:104808000201A1EBE27101EB4100A2EB40020020A2
:104818000F9086460C940D910E920320F0E54FF010
:10482800FF3058E645F25651F43AC5F2555181FB2E
:104838000241A1EBE27101EB4100101A00220D9038
:104848000C910F920E9296460520D9E52DE9F0437A
:10485800B1F1000927DD00239E469C461D4600F560
:104868001068C65858F803403119341BC15048F82D
:104878000340C158E617CF17794074400135CF1B64
:10488800A61B4D4503F104034CEA070C4EEA060E3D
:10489800E7D192E80A0041EA0C0143EA0E0382E8F4
:1048A8000A00BDE8F0834FF0000EF446F1E700BFC0
:1048B8002DE9F04F9BB0249C1090A5690D920293AE
:1048C800002D40F06381E36A6069526B0E950133F5
:1048D80000F1010B32F913500E98C5EB0108049052
:1048E800259F259C109ECDF80CB0FF0043F2104286
:1048F80043F20030391BC0F60100C0F601020590F2
:104908004FF0000A384402EB810206970B92079099
:10491800D14606F5106E2F46B3460399B8F1000F3D
:10492800D4BF002201228B42A8BF0022002A4FD008
:104938000298C25C072A01BF259D059E079856F874
:10494800354018BF0B990D9E14BF51F82240456899
:10495800726B18BF8D6903F1010032F9133032F917
:1049680010C00190C3EB0C0C18BFC4EB0505BCF1DB
:10497800000F40F32A810BEB8703002253F8041B36
:1049880085FB0101CBEB03007044890040F8041C4F
:10499800C81780EA0106301A53F8041C4AEA000ACC
:1049A80084FB01018900C81780EA0106013208F179
:1049B800FF38301A9445C8BFB8F1000F43F8041CFB
:1049C80049EA000907EB0201D8DC019B0F46A4E77E
:1049D800049A029E1098CDF81CA03D4602EB4203B3
:1049E80043F20034069FC0F60104163311941E44A6
:1049F8003C4400F510601394CA460C961290144675
:104A0800A9460E9DB8F1020FD4BF00230123AC4282
:104A1800A8BF0023002B00F0B0800C990B9E002249
:104A280017AD11F8013F072B00F09D8056F8233091
:104A3800B06914AFBB50C31AAB5004320C2AF0D182
:104A48000D98436B03EB44021346B2F93020B3F9D7
:104A58002E30D31A0134002B0A930F947EDD189C54
:104A68001799149B12980394159D199E169F109CD4
:104A7800019109F101024946029300EB820204EB1D
:104A880089030495D1460596069700208A46196839
:104A9800019D85FB0141890042F8041C1C68029FA6
:104AA800CE177140A646089187FB0E1E4FEA8E016D
:104AB8005F681960CC1784EA010E00943946039F99
:104AC80087FB0151890011605D68049CCF1779400C
:104AD800AC46099184FB0C1C4FEA8C019C68596018
:104AE800CD1785EA010C2146059C84FB01B1099C80
:104AF8008900E71B089C51604FEAE17BA61B8BEA03
:104B08000101CBEB010137430F4307999E68069CCF
:104B180039430791314684FB01618900009F996000
:104B2800CE17C7EB0E04C5EB0C0586EA01070A99F8
:104B38002543BE1BA8F10308013035438142C8BF95
:104B4800B8F1020F0AF1030A03F10C0302F10C0297
:104B580049EA05099BDC5346CA4699460C9A0F9CBC
:104B680003320C924DE7259F119B53F83700139F92
:104B78007B6814AFAB50B8505FE7D146279EDDF88D
:104B88001CA086E800061BB0BDE8F08F013D012D92
:104B980007D900260E968846B3460496334635460E
:104BA8009EE60D9DA26A6B6B206903EB42034FF0F2
:104BB800000BB3F93030013003EB430501320E909E
:104BC800C5EB010804925B468AE63946019B0F460D
:104BD800A3E600BF2DE9F04FA9B043F21034339D8E
:104BE800349F55F804690C9307EB4606C0F6010498
:104BF80004EB86148E46059482460424002101267F
:104C080004356B686F6906FA03F3002F03F1FF3070
:104C18000EDD4B1E0DF1440C0F440CEB83030DF11C
:104C2800400C0CEB870143F8040F8B42FBD139464B
:104C3800013CE5D1329DAB69002B40F09780E86AD2
:104C4800526B6E6900F10108012532F8183006969A
:104C580019B2C1EB0E0EB0452795CDF800E02695A8
:104C680000F33381A34643F20037349CC0F60107B2
:104C780011AD02EB480207EBC40405EB800504976D
:104C880002920794D94603950AF5106E039F0C9E6D
:104C980057F8040F16F808200397904252D0501C7A
:104CA800D4074FEA600047D5059D55F820400022FB
:104CB800059EB558DDF808C03CF8027F1BB2CDF858
:104CC80008C03AB2DDF800C00197D31A6345B8BFEF
:104CD8009C46BCF1000F08F1010823DD0AEB8103B3
:104CE8000CEB010753F8042B85FB0202CAEB030007
:104CF8007044920040F8042CD01780EA0206301A5B
:104D080053F8042C4BEA000B84FB02029200D017E4
:104D180080EA02060131301AB94243F8042C49EA04
:104D28000009DFD10098B0EB0C00009018D0069A6B
:104D3800424515DB019BA9E7DDF814C08200DCF8C9
:104D48000040B5E7DDF8D0C00498079A50F83C4019
:104D58005568AFE7099E0136032E099623D1D1463F
:104D6800369F87E8000A29B0BDE8F08F43F2003388
:104D7800C0F601030A93A346329E0A9D349C526BE7
:104D8800CDF820A00AF5106C012305EBC40406F148
:104D980018070E920D94CDF824B01D930B960F971B
:104DA800CDF81CC0DA460B9D329C0F9E0E9F2B1B24
:104DB800334455F8044F5A680B9502F1150507EB73
:104DC8004505501CEB88099E4FF0030CA04213FBCD
:104DD8000C61BFDC02EB42000C9F304438441730B2
:104DE80000900DF1440C11A80CEB840C00EB820927
:104DF800009C59F8040FE278CDF818C006359042A7
:104E0800039555D0501CD2074FEA600059D5059A32
:104E180052F820600022059CA558DDF80CC03CF82B
:104E2800027F1BB20FFA87F8C3EB0808B8F1000F2E
:104E3800CDF80CC001972DDD4FEA4800844602905A
:104E4800079A089804914FEA810EC44470448C4430
:104E580096440023C25885FB02429200D41784EA84
:104E680002074EF803203C1BC2584BEA040B86FB92
:104E780002429200D41784EA020703313C1B6145C1
:104E8800C2504AEA040A03F10C03E3D10299049BD5
:104E980041441944009C069D0334A94500943FF4FD
:104EA80059AF009C59F8040FE278019B9042A9D1B0
:104EB800349D0A9FDDF834C057F83560DCF804509B
:104EC800ABE7820005980668A5E7369FA346A1468A
:104ED80087E8000A29B0BDE8F08F00BF2DE9F04F40
:104EE8000E4685B0002879D0C368002B76D0436978
:104EF800002B73D0D0F81890B9F1000F6ED0D0F80D
:104F0800BC27022A09F50855984603F5D85A2BD02C
:104F18002A680AF1180A0027DAF8003007F00104B5
:104F2800404600934946234600F05CF82B6822016E
:104F3800224403EB821142F61C62C0F6010230469D
:104F480009EB810100F0E4FB2A680137121B02F02B
:104F58000702122F08F1800806F140062A60DBD10B
:104F6800002005B0BDE8F08F574609F180032A6894
:104F780003930AF1180A1C374FF0000BDAF80030D7
:104F88000BF00104404600934946234600F02AF8F6
:104F980039682A68009108F510602346039900F0E3
:104FA80021F82B682201224403EB821142F61C628D
:104FB800C0F60102304609EB810100F00BFD2A68BA
:104FC8000BF1010B121B02F00702BBF1120F08F1E3
:104FD800800806F180062A60D0D1C1E74FF0FF3083
:104FE800BFE700BF2DE9F04F87B0109C0291052C58
:104FF80004920393C8BF4FF0000B0BDCC4F1060BFF
:10500800034600F180011A6842FA0BF243F8042BB8
:105018008B42F8D10568C46FC66B026C4CF2512103
:105028002B1BC4F21301254481FB034342F2FB24EA
:10503800B11A5B003244C5F2851484FB016144F265
:105048007264AF184901AA1A0760C4F24F0484FBBE
:10505800025244F27264CD1852005B1AC2630564AE
:10506800C4F24F0484FB03234468826F866B456C4B
:105078004FEA430E44F2BD51A31AC0F87CE0224423
:10508800C4F2B30181FB034342F2CF04711B5B00FE
:105098002E44C6F60B5484FB015143F6104495196F
:1050A8000595921BC9004560C4F2E12484FB0262A5
:1050B80043F61044CE1852005B1A82634664C4F269
:1050C800E12484FB0323D0F808C0D0F874E0466BD1
:1050D800846C5B0042F66D528367CEEB0C010CEBDF
:1050E8000E03C4F2FA1282FB01E145F2907E321BF4
:1050F80049002644C4F2D91E8EFB024249F6447484
:1051080003EB060AD2009B1BC0F808A0C4F6910462
:1051180084FB036349F644745B005618C2EB010C28
:1051280043638664C4F6910484FB0C3CC468016F35
:10513800D0F830E0C66C4FEA4C0C43F22143621AB7
:10514800C0F874C00C44C4F2F93383FB021248F669
:105158009651C6EB0E0352007644C5F6FC6181FBFE
:1051680003E340F6636104EB06089B00A61BC0F846
:105178000C80C5F2CB2181FB064640F663619C1882
:105188007600D21A0663C464C5F2CB2181FB0232D1
:105198000469C16ED0F82CE0066D4FEA420C41F666
:1051A800C433621AC0F870C00C44C4F2CC6383FBE9
:1051B800021241F69721C6EB0E0352007644C4F65C
:1051C800D82181FB03E344F22E0104EB06099B007E
:1051D800A61BC0F81090C6F2E24181FB064644F2D5
:1051E8002E019C187600D21AC6620465C6F2E24106
:1051F80081FB02324469816ED0F828E0466D4FEA9F
:10520800420C49F6F043621AC0F86CC00C44C4F66C
:105218009D2383FB021241F6B351C6EB0E035200E5
:105228007644C7F67D4181FB03E342F2A94104EBD2
:10523800060C5B00A61BC0F814C0C4F2E23181FB67
:10524800064642F2A9419C18B600D21A8662446505
:10525800C4F2E23181FB02328469416E4FEA820E68
:1052680043F21173621AC0F868E00C44C4F6AE73D6
:1052780083FB0212856D466A731B2E46456A4CF6FF
:10528800267152002E44C6F66F3181FB03E349F2C2
:10529800C12EA1195B00A61B8161C6F63C6E8EFB70
:1052A800064649F2C1244FEA860E9E18C0F824E04B
:1052B800D21A8665C6F63C6484FB0232C669046E5F
:1052C800C36D9200426641F6A762C4EB060EC5F2B2
:1052D8006062264482FB0E4E046A056AE21A4FF2A7
:1052E800EB644FEA4E0E2B44C5F64C7484FB025215
:1052F800F418F31A44F604665200C461C5F29E1607
:1053080086FB03531B01036244F6046602EB0E039B
:10531800C2EB0E02C3659646C5F29E1686FB0E3E8C
:105328004FEA0E1347F69A1EC5F6822E414A0366C7
:10533800264603460C4655460599CDF804B0059017
:10534800E2467046C6EB070C374452F8186C86FBE9
:105358000CECC9EB080E4FEA4C0CC14452F8146C23
:1053680086FB0E8EC9EB070B4FEACE0EB94452F8F6
:10537800106C86FB0B7BCEEB0C084FEA4B0BE6441C
:1053880086FB08780E1B4FEA4808214452F80C4C5B
:1053980084FB0676CAEB05074FEA460C554452F8DB
:1053A800086C86FB07474E1B7F000D4452F8041C0F
:1053B80081FB0646C7EB0C04B600674481FB04C4B6
:1053C800C5EB09014FEA840C80FB0141C6EB0B04D5
:1053D80080FB04A464005E4426444D444900C7EBA6
:1053E8000E0ADC609E601D605960544680FB041400
:1053F800CCEB08016400E04480FB01510E4E4900EB
:1054080088447744183204EB080547440C44B242F8
:105418001F619D615C61D96110D01F6ADE6BD3F892
:105428002C80D3F83090596A9C6B9D6AD3F834A0CD
:10543800203387E700370108603701080499039F84
:10544800DDF804B00598CA1B02F00702002F00F02F
:105458005381029F046802F5806107EB81054FF4D0
:1054680088632C6247F82140049C029E41682344CB
:1054780006EB8305296246F82310446E416F436C9E
:1054880021440B44C5F82031C5F80031466A436B06
:105498003344C5F82032C5F80032436D1944C5F8C5
:1054A8002013C5F800134169C36E446FC5F8201472
:1054B800C5F80014416D1C442144C5F82015C5F8F1
:1054C8000015416BC36A0B44C5F82036C5F8003691
:1054D800C36C2344C5F82037C5F80037C168C36FCB
:1054E800C46EC5F82018C5F80018C16C039F1C4489
:1054F8002144C5F82019C5F80019C16AC36B0B44CB
:10550800C5F8203AC5F8003AC36D2344C5F8203BD6
:10551800C5F8003BC369C46FC5F8203CC5F8003C1A
:10552800C36D2344C5F8203DC5F8003DC36BC5F8DD
:10553800204F002F0CBF4FF48866002602F110019F
:10554800C5F8004F7418029EC5F8203EC5F8003E05
:10555800456806EB84031D6246F82450866F456E45
:10556800446C35442C44C3F82041C3F80041876B90
:10557800446A3C44C3F82042C3F80042846D2C447A
:10558800C3F82043C3F800438469C3F82044C3F830
:105598000044866E856F846D35442C44C3F82045DD
:1055A800C3F80045876A846B3C44C3F82046C3F8B7
:1055B8000046846C2C44C3F82047C3F8004784682D
:1055C800C3F82048C3F80048066F856E846C3544DC
:1055D8002C44C3F82049C3F80049076B846A3C444B
:1055E800C3F8204AC3F8004A046D2C44C3F8204B82
:1055F800C3F8004B0469C3F8204CC3F8004C066E8E
:10560800056F046D35442C44C3F8204DC3F8004D94
:10561800076A046B3C44C3F8204EC3F8004E006C84
:105628000544C3F8205FC3F8005FBBF1000F60D0EA
:10563800039F0298002F0CBF4FF48863002302F5E4
:1056480080621A44CBF11F0450F82230029FD81709
:1056580043FA04F585421EBF0123A34003F1FF333B
:1056680007EB820618BF434003FA0BF3039D33622E
:10567800049E029F002D14BF4FF48860002001256E
:105688003044A54047F8223007EB8000013D002355
:10569800C258D61742FA04FEB64500EB030718BFF6
:1056A80086EA050202FA0BF23A62C25003F58073E9
:1056B800B3F5805FECD10398029E00280CBF4FF42D
:1056C80088630023194406EB81010023CA58D017C8
:1056D80042FA04F7874201EB030618BF85EA000285
:1056E80002FA0BF23262CA5003F58073B3F5805F99
:1056F800ECD107B0BDE8F08F029C039B02F5046172
:1057080004EB810504682C62029D45F82140ABE654
:105718002DE9F04F4FF0007383B0002417680E682E
:10572800CD6DC6FB073457687E42C5FB06349768C3
:105738004E688D6DC6FB0734D7687E42C5FB0634BC
:1057480017698E684D6DC6FB073457697E42C5FBE5
:1057580006349769CE680D6DC6FB0734D7697E425B
:10576800C5FB0634176A0E69CD6CC6FB0734576A49
:105778007E42C5FB0634976A4E698D6CC6FB0734BA
:10578800D76A7E42C5FB0634176B8E694D6CC6FB23
:105798000734576B7E42C5FB0634976BCE690D6C98
:1057A800C6FB0734D76B7E42C5FB06341B0D43EAA4
:1057B8000433DC17B4EB635F18BF84F4FF4401F5CE
:1057C80080564FEAA31518BF84F07F0505804FF077
:1057D800007300243668D2F80054C6FB053401F57E
:1057E80080556E68D2F80454C6FB053401F580551F
:1057F800AE68D2F80854C6FB053401F58055EE684A
:10580800D2F80C54C6FB053401F580552E69D2F840
:105818001054C6FB053401F580556E69D2F814544E
:10582800C6FB053401F58055AE69D2F81854C6FB9D
:10583800053401F58055EE69D2F81C54C6FB0534D1
:105848001B0D43EA0433DD17B5EB635F4FEAA3147E
:105858001CBF85F4FF4484F07F0402F1400302F585
:105868008062048401F58071019200F1400B824648
:105878004FF000794FF0000893E80140D1F800C0DC
:10588800CA6D4F464646CCFB00764D464446CCFB97
:105898000E54CEF1000EC2FB0E76C2FB005498687F
:1058A800D3F80CE0D1F804C08A6DCCFB0076CCFBB1
:1058B8000E54CEF1000EC2FB0E76C2FB00541869DE
:1058C800D3F814E0D1F808C04A6DCCFB0076CCFBC5
:1058D8000E54CEF1000EC2FB0E76C2FB005498693E
:1058E800D3F81CE0D1F80CC00A6DCCFB0076CCFBD9
:1058F8000E54CEF1000EC2FB0E76C2FB0054186A9D
:10590800D3F824E0D1F810C0CA6CCCFB0076CCFBED
:105918000E54CEF1000EC2FB0E76C2FB0054986AFC
:10592800D3F82CE0D1F814C08A6CCCFB0076CCFB01
:105938000E54CEF1000EC2FB0E76C2FB0054186B5B
:10594800D3F834E0D1F818C04A6CCCFB0076CCFB15
:105958000E54CEF1000EC2FB0E76C2FB0054986BBB
:10596800D3F83CC0D1F81CE00A6C4033CEFB00767B
:10597800CEFB0C54CCF1000CC2FB0C76C2FB0054DD
:105988003F0D47EA0637F8172D0DB0EB675F45EA7C
:1059980004354FEAA71218BF80F4FF424FEAE570BA
:1059A80018BF82F07F02B0EB655F2AF8022F4FEA3A
:1059B800A5121CBF80F4FF4282F07F022BF8022D53
:1059C800019A9A4201F580717FF456AF03B0BDE8A1
:1059D800F08F00BF2DE9F04FD2F800C057680D686E
:1059E800CB6D85B04FF000740026C5FB0C46C7F19F
:1059F800000EC3FB0E464FF000730025D1F88070EF
:105A0800C7FB0C35D1F8DC70C7FB0E35D2F808C0DF
:105A18004F68C7FB0C46D768C7F1000E8F6DC7FBF0
:105A28000E46D1F88470C7FB0C35D1F8D870C7FB87
:105A38000E35D2F810C08F68C7FB0C465769C7F1FE
:105A4800000E4F6DC7FB0E46D1F88870C7FB0C35AA
:105A5800D1F8D470C7FB0E35D2F818C0CF68C7FB91
:105A68000C46D769C7F1000E0F6DC7FB0E46D1F87B
:105A78008C70C7FB0C35D1F8D070C7FB0E35D2F847
:105A880020C00F69C7FB0C46576AC7F1000ECF6CE0
:105A9800C7FB0E46D1F89070C7FB0C35D1F8CC7017
:105AA800C7FB0E35D2F828C04F69C7FB0C46D76A2A
:105AB800C7F1000E8F6CC7FB0E46D1F89470C7FB78
:105AC8000C35D1F8C870C7FB0E35D2F830C08F69D5
